{
  "contractName": "Marketplace",
  "abi": [
    {
      "anonymous": false,
      "inputs": [
        {
          "indexed": false,
          "internalType": "string",
          "name": "_userId",
          "type": "string"
        },
        {
          "indexed": false,
          "internalType": "uint256",
          "name": "_orderPrice",
          "type": "uint256"
        },
        {
          "indexed": false,
          "internalType": "uint256",
          "name": "_step",
          "type": "uint256"
        },
        {
          "indexed": false,
          "internalType": "address",
          "name": "_userAddress",
          "type": "address"
        }
      ],
      "name": "OrderChainStep",
      "type": "event"
    },
    {
      "anonymous": false,
      "inputs": [
        {
          "indexed": false,
          "internalType": "string",
          "name": "token",
          "type": "string"
        },
        {
          "indexed": false,
          "internalType": "string",
          "name": "name",
          "type": "string"
        },
        {
          "indexed": false,
          "internalType": "uint256",
          "name": "price",
          "type": "uint256"
        },
        {
          "indexed": false,
          "internalType": "address payable",
          "name": "owner",
          "type": "address"
        }
      ],
      "name": "ProductCreated",
      "type": "event"
    },
    {
      "anonymous": false,
      "inputs": [
        {
          "indexed": false,
          "internalType": "string",
          "name": "token",
          "type": "string"
        },
        {
          "indexed": false,
          "internalType": "string",
          "name": "name",
          "type": "string"
        },
        {
          "indexed": false,
          "internalType": "uint256",
          "name": "price",
          "type": "uint256"
        },
        {
          "indexed": false,
          "internalType": "address payable",
          "name": "owner",
          "type": "address"
        }
      ],
      "name": "ProductPurchased",
      "type": "event"
    },
    {
      "inputs": [],
      "name": "name",
      "outputs": [
        {
          "internalType": "string",
          "name": "",
          "type": "string"
        }
      ],
      "stateMutability": "view",
      "type": "function"
    },
    {
      "inputs": [
        {
          "internalType": "address",
          "name": "",
          "type": "address"
        }
      ],
      "name": "order",
      "outputs": [
        {
          "internalType": "string",
          "name": "_userId",
          "type": "string"
        },
        {
          "internalType": "uint256",
          "name": "_orderPrice",
          "type": "uint256"
        },
        {
          "internalType": "address",
          "name": "_userAddress",
          "type": "address"
        },
        {
          "internalType": "enum Marketplace.SupplyChainState",
          "name": "_state",
          "type": "uint8"
        }
      ],
      "stateMutability": "view",
      "type": "function"
    },
    {
      "inputs": [
        {
          "internalType": "string",
          "name": "",
          "type": "string"
        }
      ],
      "name": "products",
      "outputs": [
        {
          "internalType": "string",
          "name": "token",
          "type": "string"
        },
        {
          "internalType": "string",
          "name": "name",
          "type": "string"
        },
        {
          "internalType": "uint256",
          "name": "price",
          "type": "uint256"
        },
        {
          "internalType": "address payable",
          "name": "owner",
          "type": "address"
        }
      ],
      "stateMutability": "view",
      "type": "function"
    },
    {
      "stateMutability": "payable",
      "type": "receive"
    },
    {
      "inputs": [
        {
          "internalType": "string",
          "name": "_userId",
          "type": "string"
        },
        {
          "internalType": "uint256",
          "name": "_orderPrice",
          "type": "uint256"
        },
        {
          "internalType": "address",
          "name": "_userAddress",
          "type": "address"
        },
        {
          "internalType": "address",
          "name": "_ownerAddress",
          "type": "address"
        }
      ],
      "name": "createOrder",
      "outputs": [],
      "stateMutability": "payable",
      "type": "function"
    },
    {
      "inputs": [
        {
          "internalType": "string",
          "name": "_name",
          "type": "string"
        },
        {
          "internalType": "uint256",
          "name": "_price",
          "type": "uint256"
        },
        {
          "internalType": "string",
          "name": "_token",
          "type": "string"
        }
      ],
      "name": "createProduct",
      "outputs": [],
      "stateMutability": "nonpayable",
      "type": "function"
    }
  ],
  "bytecode": "0x608060405234801561001057600080fd5b506110c9806100206000396000f3fe60806040526004361061004e5760003560e01c80630186a4231461005a57806306fdde031461009a578063b7f84d97146100c5578063d1e46a6014610105578063ff38ec0f1461012157610055565b3661005557005b600080fd5b34801561006657600080fd5b50610081600480360381019061007c9190610a84565b61014a565b6040516100919493929190610d1e565b60405180910390f35b3480156100a657600080fd5b506100af6102c0565b6040516100bc9190610cfc565b60405180910390f35b3480156100d157600080fd5b506100ec60048036038101906100e79190610a5b565b61034e565b6040516100fc9493929190610d71565b60405180910390f35b61011f600480360381019061011a9190610ac5565b610433565b005b34801561012d57600080fd5b5061014860048036038101906101439190610b40565b6107e6565b005b60018180516020810182018051848252602083016020850120818352809550505050505060009150905080600001805461018390610f50565b80601f01602080910402602001604051908101604052809291908181526020018280546101af90610f50565b80156101fc5780601f106101d1576101008083540402835291602001916101fc565b820191906000526020600020905b8154815290600101906020018083116101df57829003601f168201915b50505050509080600101805461021190610f50565b80601f016020809104026020016040519081016040528092919081815260200182805461023d90610f50565b801561028a5780601f1061025f5761010080835404028352916020019161028a565b820191906000526020600020905b81548152906001019060200180831161026d57829003601f168201915b5050505050908060020154908060030160009054906101000a900473ffffffffffffffffffffffffffffffffffffffff16905084565b600080546102cd90610f50565b80601f01602080910402602001604051908101604052809291908181526020018280546102f990610f50565b80156103465780601f1061031b57610100808354040283529160200191610346565b820191906000526020600020905b81548152906001019060200180831161032957829003601f168201915b505050505081565b600260205280600052604060002060009150905080600001805461037190610f50565b80601f016020809104026020016040519081016040528092919081815260200182805461039d90610f50565b80156103ea5780601f106103bf576101008083540402835291602001916103ea565b820191906000526020600020905b8154815290600101906020018083116103cd57829003601f168201915b5050505050908060010154908060020160009054906101000a900473ffffffffffffffffffffffffffffffffffffffff16908060020160149054906101000a900460ff16905084565b83600260008473ffffffffffffffffffffffffffffffffffffffff1673ffffffffffffffffffffffffffffffffffffffff1681526020019081526020016000206000019080519060200190610489929190610926565b5082600260008473ffffffffffffffffffffffffffffffffffffffff1673ffffffffffffffffffffffffffffffffffffffff1681526020019081526020016000206001018190555081600260008473ffffffffffffffffffffffffffffffffffffffff1673ffffffffffffffffffffffffffffffffffffffff16815260200190815260200160002060020160006101000a81548173ffffffffffffffffffffffffffffffffffffffff021916908373ffffffffffffffffffffffffffffffffffffffff1602179055506000341161055f57600080fd5b8073ffffffffffffffffffffffffffffffffffffffff166108fc349081150290604051600060405180830381858888f193505050501580156105a5573d6000803e3d6000fd5b506000600260008473ffffffffffffffffffffffffffffffffffffffff1673ffffffffffffffffffffffffffffffffffffffff16815260200190815260200160002060020160146101000a81548160ff02191690836001811115610632577f4e487b7100000000000000000000000000000000000000000000000000000000600052602160045260246000fd5b02179055507f90631be4066f06410554548e1727a018dc8a557b25b4d9f95428f291bfd94b0c600260008473ffffffffffffffffffffffffffffffffffffffff1673ffffffffffffffffffffffffffffffffffffffff168152602001908152602001600020600001600260008573ffffffffffffffffffffffffffffffffffffffff1673ffffffffffffffffffffffffffffffffffffffff16815260200190815260200160002060010154600260008673ffffffffffffffffffffffffffffffffffffffff1673ffffffffffffffffffffffffffffffffffffffff16815260200190815260200160002060020160149054906101000a900460ff166001811115610765577f4e487b7100000000000000000000000000000000000000000000000000000000600052602160045260246000fd5b600260008773ffffffffffffffffffffffffffffffffffffffff1673ffffffffffffffffffffffffffffffffffffffff16815260200190815260200160002060020160009054906101000a900473ffffffffffffffffffffffffffffffffffffffff166040516107d89493929190610dbd565b60405180910390a150505050565b60008351116107f457600080fd5b6000821161080157600080fd5b60405180608001604052808281526020018481526020018381526020013373ffffffffffffffffffffffffffffffffffffffff168152506001826040516108489190610ce5565b90815260200160405180910390206000820151816000019080519060200190610872929190610926565b50602082015181600101908051906020019061088f929190610926565b506040820151816002015560608201518160030160006101000a81548173ffffffffffffffffffffffffffffffffffffffff021916908373ffffffffffffffffffffffffffffffffffffffff1602179055509050507f813a92ef225faa2ae1b6a264461c81de5095ae357a69677fbb89264d2b0a0c45818484336040516109199493929190610d1e565b60405180910390a1505050565b82805461093290610f50565b90600052602060002090601f016020900481019282610954576000855561099b565b82601f1061096d57805160ff191683800117855561099b565b8280016001018555821561099b579182015b8281111561099a57825182559160200191906001019061097f565b5b5090506109a891906109ac565b5090565b5b808211156109c55760008160009055506001016109ad565b5090565b60006109dc6109d784610e2e565b610e09565b9050828152602081018484840111156109f457600080fd5b6109ff848285610f0e565b509392505050565b600081359050610a1681611065565b92915050565b600082601f830112610a2d57600080fd5b8135610a3d8482602086016109c9565b91505092915050565b600081359050610a558161107c565b92915050565b600060208284031215610a6d57600080fd5b6000610a7b84828501610a07565b91505092915050565b600060208284031215610a9657600080fd5b600082013567ffffffffffffffff811115610ab057600080fd5b610abc84828501610a1c565b91505092915050565b60008060008060808587031215610adb57600080fd5b600085013567ffffffffffffffff811115610af557600080fd5b610b0187828801610a1c565b9450506020610b1287828801610a46565b9350506040610b2387828801610a07565b9250506060610b3487828801610a07565b91505092959194509250565b600080600060608486031215610b5557600080fd5b600084013567ffffffffffffffff811115610b6f57600080fd5b610b7b86828701610a1c565b9350506020610b8c86828701610a46565b925050604084013567ffffffffffffffff811115610ba957600080fd5b610bb586828701610a1c565b9150509250925092565b610bc881610ead565b82525050565b610bd781610e9b565b82525050565b610be681610efc565b82525050565b6000610bf782610e74565b610c018185610e7f565b9350610c11818560208601610f1d565b610c1a81611040565b840191505092915050565b6000610c3082610e74565b610c3a8185610e90565b9350610c4a818560208601610f1d565b80840191505092915050565b60008154610c6381610f50565b610c6d8186610e7f565b94506001821660008114610c885760018114610c9a57610ccd565b60ff1983168652602086019350610ccd565b610ca385610e5f565b60005b83811015610cc557815481890152600182019150602081019050610ca6565b808801955050505b50505092915050565b610cdf81610ef2565b82525050565b6000610cf18284610c25565b915081905092915050565b60006020820190508181036000830152610d168184610bec565b905092915050565b60006080820190508181036000830152610d388187610bec565b90508181036020830152610d4c8186610bec565b9050610d5b6040830185610cd6565b610d686060830184610bbf565b95945050505050565b60006080820190508181036000830152610d8b8187610bec565b9050610d9a6020830186610cd6565b610da76040830185610bce565b610db46060830184610bdd565b95945050505050565b60006080820190508181036000830152610dd78187610c56565b9050610de66020830186610cd6565b610df36040830185610cd6565b610e006060830184610bce565b95945050505050565b6000610e13610e24565b9050610e1f8282610f82565b919050565b6000604051905090565b600067ffffffffffffffff821115610e4957610e48611011565b5b610e5282611040565b9050602081019050919050565b60008190508160005260206000209050919050565b600081519050919050565b600082825260208201905092915050565b600081905092915050565b6000610ea682610ed2565b9050919050565b6000610eb882610ed2565b9050919050565b6000819050610ecd82611051565b919050565b600073ffffffffffffffffffffffffffffffffffffffff82169050919050565b6000819050919050565b6000610f0782610ebf565b9050919050565b82818337600083830152505050565b60005b83811015610f3b578082015181840152602081019050610f20565b83811115610f4a576000848401525b50505050565b60006002820490506001821680610f6857607f821691505b60208210811415610f7c57610f7b610fe2565b5b50919050565b610f8b82611040565b810181811067ffffffffffffffff82111715610faa57610fa9611011565b5b80604052505050565b7f4e487b7100000000000000000000000000000000000000000000000000000000600052602160045260246000fd5b7f4e487b7100000000000000000000000000000000000000000000000000000000600052602260045260246000fd5b7f4e487b7100000000000000000000000000000000000000000000000000000000600052604160045260246000fd5b6000601f19601f8301169050919050565b6002811061106257611061610fb3565b5b50565b61106e81610e9b565b811461107957600080fd5b50565b61108581610ef2565b811461109057600080fd5b5056fea26469706673582212205f321289fe74bcec57f26e9cb3256bca4125c50dea229c6b5f19b24871afd13764736f6c63430008010033",
  "immutableReferences": {},
  "source": "pragma solidity ^0.8.0;\r\n\r\ncontract Marketplace {\r\n    string public name;\r\n    mapping(string => Product) public products;\r\n\r\n    struct Product {\r\n        string token;\r\n        string name;\r\n        uint256 price;\r\n        address payable owner;\r\n    }\r\n\r\n    event ProductCreated(\r\n        string token,\r\n        string name,\r\n        uint256 price,\r\n        address payable owner\r\n    );\r\n\r\n    event ProductPurchased(\r\n        string token,\r\n        string name,\r\n        uint256 price,\r\n        address payable owner\r\n    );\r\n\r\n    enum SupplyChainState {\r\n        Paided,\r\n        Delivered\r\n    }\r\n\r\n    struct S_Order {\r\n        string _userId;\r\n        uint256 _orderPrice;\r\n        address _userAddress;\r\n        Marketplace.SupplyChainState _state;\r\n    }\r\n\r\n    event OrderChainStep(\r\n        string _userId,\r\n        uint256 _orderPrice,\r\n        uint256 _step,\r\n        address _userAddress\r\n    );\r\n\r\n    mapping(address => S_Order) public order;\r\n\r\n    function createOrder(\r\n        string memory _userId,\r\n        uint256 _orderPrice,\r\n        address _userAddress,\r\n        address _ownerAddress\r\n    ) external payable {\r\n        order[_userAddress]._userId = _userId;\r\n        order[_userAddress]._orderPrice = _orderPrice;\r\n        order[_userAddress]._userAddress = _userAddress;\r\n\r\n        require(msg.value > 0);\r\n        payable(address(_ownerAddress)).transfer(msg.value);\r\n        order[_userAddress]._state = SupplyChainState.Paided;\r\n\r\n        // for (uint256 i = 0; i < _tokens.length; i++) {\r\n        //     require(bytes(_tokens[i]).length > 0);\r\n        //     Product memory _product = products[_tokens[i]];\r\n        //     address payable _seller = _product.owner;\r\n        //     require(msg.value >= _product.price);\r\n        //     require(_seller != msg.sender);\r\n        //     _product.owner = payable(msg.sender);\r\n        //     products[_tokens[i]] = _product;\r\n        //     emit ProductPurchased(\r\n        //         _tokens[i],\r\n        //         _product.name,\r\n        //         _product.price,\r\n        //         payable(msg.sender)\r\n        //     );\r\n        // }\r\n\r\n        emit OrderChainStep(\r\n            string(order[_userAddress]._userId),\r\n            uint256(order[_userAddress]._orderPrice),\r\n            uint256(order[_userAddress]._state),\r\n            address(order[_userAddress]._userAddress)\r\n        );\r\n    }\r\n\r\n    function createProduct(\r\n        string memory _name,\r\n        uint256 _price,\r\n        string memory _token\r\n    ) public {\r\n        require(bytes(_name).length > 0);\r\n        require(_price > 0);\r\n        products[_token] = Product(_token, _name, _price, payable(msg.sender));\r\n        emit ProductCreated(_token, _name, _price, payable(msg.sender));\r\n    }\r\n\r\n    receive() external payable {}\r\n}\r\n",
  "sourcePath": "E:\\DATN-2022-v2\\project\\Project-Nodejs-2\\truffle\\contracts\\Marketplace.sol",
  "compiler": {
    "name": "solc",
    "version": "0.8.1+commit.df193b15.Emscripten.clang"
  },
  "schemaVersion": "3.4.10",
  "updatedAt": "2022-11-26T04:00:52.876Z",
  "devdoc": {
    "kind": "dev",
    "methods": {},
    "version": 1
  },
  "userdoc": {
    "kind": "user",
    "methods": {},
    "version": 1
  }
}